:100000000C9462000C948A000C948A000C948A0070
:100010000C948A000C948A000C948A000C948A0038
:100020000C948A000C9494000C948A000C948A001E
:100030000C948A000C948A000C948A000C948A0018
:100040000C9429030C948A000C94B9010C94E801D7
:100050000C948A000C948A000C948A000C948A00F8
:100060000C948A000C948A000000000024002700F1
:100070002A0000000000250028002B0000000000DE
:1000800023002600290004040404040404040202DA
:100090000202020203030303030301020408102007
:1000A0004080010204081020010204081020000012
:1000B0000007000201000003040600000000000029
:1000C0000000A20211241FBECFEFD4E0DEBFCDBFDF
:1000D00011E0A0E0B1E0EEEEF9E002C005900D9273
:1000E000AA31B107D9F711E0AAE1B1E001C01D9230
:1000F000A03DB107E1F710E0C4ECD0E004C02297C6
:10010000FE010E94F104C23CD107C9F70E94000120
:100110000C94F5040C940000DC01ED91FC9101902D
:10012000F081E02D099508951F920F920FB60F925E
:1001300011248F939F931092B20080911A01909195
:100140001B01019690931B0180931A018E33910538
:1001500038F081E080931C0110921B0110921A016B
:100160009F918F910F900FBE0F901F90189585EA69
:1001700091E040E855E260E070E00E94230282E0F6
:1001800060E00E9426048DE061E00E94260408954C
:1001900082E00E94A304009721F08130910579F557
:1001A0000BC08DE060E00E946B0464E670E080E0CC
:1001B00090E00E94970308958DE061E00E946B0437
:1001C00085EA91E060E071E00E94260385EA91E013
:1001D0000E943601BC0185EA91E00E948C0085EA0C
:1001E00091E06AE070E00E948C0085EA91E00E9454
:1001F000580168EE73E080E090E00E949703089554
:100200000E94BE030E94B7000E94C800FDCFFC01FF
:1002100084859585FC01E05CFF4F208131818E5BF8
:100220009F4FFC0180819181281B390B2F73307007
:10023000C9010895FC0184859585FC01E05CFF4FB0
:1002400040815181FC01EE5BFF4F208131814217DB
:10025000530741F00190F081E02DE80FF91F208154
:1002600030E002C02FEF3FEFC9010895FC01848503
:100270009585FC01E05CFF4F40815181FC01EE5B04
:10028000FF4F208131814217530771F0A081B18166
:10029000A80FB91F2C918081918101968F73907066
:1002A0009183808330E002C02FEF3FEFC9010895B2
:1002B000FC0181A1882329F0A489B5898C9186FF4E
:1002C000FBCF11A20895FC0126853785D901A05CDA
:1002D000BF4F8D919C9101968F739070D901AE5B49
:1002E000BF4F4D915C91119784179507D1F3D901B8
:1002F000A05CBF4F0D90BC91A02DA20FB31F6C93BB
:10030000A685B785A05CBF4F11969C938E93A68956
:10031000B7892C9181E090E0078C02C0880F991F6B
:100320000A94E2F7282B2C9381E081A30488F589B5
:10033000E02D80818064808381E090E00895FB015E
:10034000E05CFF4F208131812F5F3F4F2F73307072
:10035000DB01AE5BBF4F4D915C91119724173507C0
:1003600039F0A081B181A60FB71F8C933183208310
:1003700008951F920F920FB60F9211242F933F935F
:100380004F935F936F937F938F939F93AF93BF939D
:10039000EF93FF938091C00082FD07C08091C6005B
:1003A0006DE171E00E949F0102C08091C600FF9143
:1003B000EF91BF91AF919F918F917F916F915F91DD
:1003C0004F913F912F910F900FBE0F901F90189556
:1003D0001F920F920FB60F9211242F933F938F937A
:1003E0009F93EF93FF932091A1013091A2018091FF
:1003F000A3019091A4012817390731F48091C1001D
:100400008F7D8093C10014C0E091A301F091A401FD
:10041000EF59FE4F20818091A3019091A401019694
:100420008F7390709093A4018093A3012093C600D2
:10043000FF91EF919F918F913F912F910F900FBE60
:100440000F901F901895DF92EF92FF920F931F93DA
:10045000CF93DF93EC017A018B01DD24D3944030FC
:1004600081EE580780E0680780E0780749F4DD24D2
:10047000EC89FD89108260E874E88EE190E00FC09D
:10048000EC89FD8981E090E008A002C0880F991FE7
:100490000A94E2F7808360E079E08DE390E0A801C0
:1004A00097010E94CD042150304040405040569565
:1004B00047953795279580E12030380710F0DD20EB
:1004C000B1F6E889F9893083EA89FB89208319A28A
:1004D000EE89FF89408181E090E09C010C8C02C094
:1004E000220F331F0A94E2F7422B4083EE89FF89E3
:1004F00040819C010D8C02C0220F331F0A94E2F749
:10050000422B4083EE89FF8940819C010E8C02C002
:10051000220F331F0A94E2F7422B4083EE89FF89B2
:1005200020810F8C02C0880F991F0A94E2F78095F2
:1005300082238083DF91CF911F910F91FF90EF90E5
:10054000DF9008951092A8011092A70188EE93E021
:10055000A0E0B0E08093A9019093AA01A093AB0121
:10056000B093AC01E7EAF1E08EE091E092938293E0
:100570008DE191E09587848781E691E09787868772
:1005800085EC90E0918B808B84EC90E0938B828B58
:1005900080EC90E0958B848B81EC90E0978B868B40
:1005A00082EC90E0918F808F86EC90E0938F828F29
:1005B00084E0848F83E0858F87E0868F85E0878F56
:1005C00081E080A30895CF92DF92EF92FF920F9384
:1005D0001F93CF93DF936C017B018A01C0E0D0E0D1
:1005E0000FC0D7016D917D01D601ED91FC91019075
:1005F000F081E02DC6010995C80FD91F01501040A8
:100600000115110571F7CE01DF91CF911F910F9167
:10061000FF90EF90DF90CF9008956115710591F0F4
:10062000DB010D900020E9F7AD0141505040461B21
:10063000570BDC01ED91FC910280F381E02D0995CF
:100640009C0102C020E030E0C90108950E940D0322
:1006500008951F920F920FB60F9211242F933F937C
:100660008F939F93AF93BF938091CB019091CC01D7
:10067000A091CD01B091CE013091CF010196A11D85
:10068000B11D232F2D5F2D3720F02D570196A11D71
:10069000B11D2093CF018093CB019093CC01A09307
:1006A000CD01B093CE018091C7019091C801A09176
:1006B000C901B091CA010196A11DB11D8093C70166
:1006C0009093C801A093C901B093CA01BF91AF91A3
:1006D0009F918F913F912F910F900FBE0F901F9080
:1006E00018959FB7F8942091C7013091C8014091A7
:1006F000C9015091CA0186B5A89B06C08F3F21F061
:100700002F5F3F4F4F4F5F4F9FBF542F432F322FCD
:100710002227280F311D411D511D82E0220F331F5A
:10072000441F551F8A95D1F7B901CA010895EF9268
:10073000FF920F931F93CF93DF937B018C010E9455
:100740007103EB010FC00E9471036C1B7D0B83E0F2
:10075000683E780738F00894E108F10801091109AA
:10076000C851DC4FE114F1040105110561F7DF9177
:10077000CF911F910F91FF90EF900895789484B5D9
:10078000826084BD84B5816084BD85B5826085BD8D
:1007900085B5816085BDEEE6F0E080818160808373
:1007A000E1E8F0E010828081826080838081816056
:1007B0008083E0E8F0E0808181608083E1EBF0E01D
:1007C000808184608083E0EBF0E0808181608083C1
:1007D000EAE7F0E0808184608083808182608083AA
:1007E0008081816080838081806880831092C100D5
:1007F0000895833071F0843028F48130A1F0823084
:1008000021F514C08630B1F08730D1F08430E9F49E
:1008100004C0809180008F7703C0809180008F7D1D
:1008200080938000089584B58F7702C084B58F7D52
:1008300084BD08958091B0008F778093B0000895B3
:100840008091B0008F7D8093B0000895EF92FF9269
:10085000CF93DF9390E0FC01E656FF4F44918A5717
:100860009F4FFC018491882389F190E0880F991FA4
:10087000FC01E859FF4F25913491D9018E589F4FC3
:10088000FC0125913491E22EE7017E01F32EE70170
:10089000662349F49FB7F8948C91409584238C93F8
:1008A000888184230BC0623059F49FB7F8948C91EF
:1008B000242F209582238C938881842B888305C0E4
:1008C0009FB7F8948C91842B8C939FBFDF91CF912D
:1008D000FF90EF9008950F931F93DF93CF930F92A4
:1008E000CDB7DEB7282F30E0F901E255FF4F8491F4
:1008F000F901E656FF4F14912A573F4FF901049131
:100900000023D9F0882321F069830E94F9036981CB
:10091000E02FF0E0EE0FFF1FEE58FF4F859194910E
:10092000DC019FB7F894662321F48C911095812304
:1009300002C08C91812B8C939FBF0F90CF91DF9140
:100940001F910F9108950F931F93282F30E0F90105
:10095000E255FF4F8491F901E656FF4F04912A5763
:100960003F4FF9011491112391F0882311F00E9457
:10097000F903E12FF0E0EE0FFF1FE458FF4F8591E0
:100980009491DC018C91802321E030E011F420E08F
:1009900030E0C9011F910F910895A1E21A2EAA1B00
:1009A000BB1BFD010DC0AA1FBB1FEE1FFF1FA2171F
:1009B000B307E407F50720F0A21BB30BE40BF50B1C
:1009C000661F771F881F991F1A9469F760957095A5
:1009D000809590959B01AC01BD01CF010895EE0F6C
:0E09E000FF1F0590F491E02D0994F894FFCFCD
:1009EE0048656C6C6F772042540000000000630174
:0A09FE00E302070136011A01580157
:00000001FF
