:100000000C9462000C948A000C948A000C948A0070
:100010000C948A000C948A000C948A000C948A0038
:100020000C948A000C948A000C948A000C948A0028
:100030000C948A000C948A000C948A000C948A0018
:100040000C946E020C948A000C9499010C94C801D3
:100050000C948A000C948A000C948A000C948A00F8
:100060000C948A000C948A000000000024002700F1
:100070002A0000000000250028002B0000000000DE
:1000800023002600290004040404040404040202DA
:100090000202020203030303030301020408102007
:1000A0004080010204081020010204081020000012
:1000B0000007000201000003040600000000000029
:1000C0000000030211241FBECFEFD4E0DEBFCDBF7E
:1000D00011E0A0E0B1E0E8E2F8E002C005900D9286
:1000E000A231B107D9F711E0A2E1B1E001C01D9240
:1000F000AD3CB107E1F710E0C4ECD0E004C02297BA
:10010000FE010E940E04C23CD107C9F70E94E00024
:100110000C9412040C94000081E00E943E038EE0D7
:1001200060E00E948F038FE060E00E948F0380E117
:1001300060E00E948F0380E060E00E948F0381E016
:1001400060E00E948F0382E060E00E948F038DE0F8
:1001500061E00E948F03089580E00E944103909324
:1001600013018093120181E00E94410390931701D3
:100170008093160182E00E944103909319018093BD
:10018000180161E020911401309115018091120154
:1001900090911301281739070CF060E08DE00E9460
:1001A000D4038091120190911301909315018093D3
:1001B00014016AE070E080E090E00E94DC020895A3
:1001C0000E9403030E948C000E94AC00FDCFFC0142
:1001D00084859585FC01E05CFF4F208131818E5B39
:1001E0009F4FFC0180819181281B390B2F73307048
:1001F000C9010895FC0184859585FC01E05CFF4FF1
:1002000040815181FC01EE5BFF4F2081318142171B
:10021000530741F00190F081E02DE80FF91F208194
:1002200030E002C02FEF3FEFC9010895FC01848543
:100230009585FC01E05CFF4F40815181FC01EE5B44
:10024000FF4F208131814217530771F0A081B181A6
:10025000A80FB91F2C918081918101968F739070A6
:100260009183808330E002C02FEF3FEFC9010895F2
:10027000FC0181A1882329F0A489B5898C9186FF8E
:10028000FBCF11A20895FC0126853785D901A05C1A
:10029000BF4F8D919C9101968F739070D901AE5B89
:1002A000BF4F4D915C91119784179507D1F3D901F8
:1002B000A05CBF4F0D90BC91A02DA20FB31F6C93FB
:1002C000A685B785A05CBF4F11969C938E93A68997
:1002D000B7892C9181E090E0078C02C0880F991FAC
:1002E0000A94E2F7282B2C9381E081A30488F589F6
:1002F000E02D80818064808381E090E00895FB019F
:10030000E05CFF4F208131812F5F3F4F2F733070B2
:10031000DB01AE5BBF4F4D915C9111972417350700
:1003200039F0A081B181A60FB71F8C933183208350
:1003300008951F920F920FB60F9211242F933F939F
:100340004F935F936F937F938F939F93AF93BF93DD
:10035000EF93FF938091C00082FD07C08091C6009B
:100360006AE171E00E947F0102C08091C600FF91A6
:10037000EF91BF91AF919F918F917F916F915F911D
:100380004F913F912F910F900FBE0F901F90189596
:100390001F920F920FB60F9211242F933F938F93BA
:1003A0009F93EF93FF9320919E0130919F01809145
:1003B000A0019091A1012817390731F48091C10063
:1003C0008F7D8093C10014C0E091A001F091A10144
:1003D000E25AFE4F20818091A0019091A1010196E7
:1003E0008F7390709093A1018093A0012093C60019
:1003F000FF91EF919F918F913F912F910F900FBEA1
:100400000F901F9018951092A5011092A40188EEEC
:1004100093E0A0E0B0E08093A6019093A701A093A1
:10042000A801B093A901E4EAF1E085E091E092939C
:1004300082938AE191E0958784878EE591E09787A2
:10044000868785EC90E0918B808B84EC90E0938B99
:10045000828B80EC90E0958B848B81EC90E0978B85
:10046000868B82EC90E0918F808F86EC90E0938F6A
:10047000828F84E0848F83E0858F87E0868F85E09C
:10048000878F81E080A30895CF92DF92EF92FF9251
:100490000F931F93CF93DF936C017B018A01C0E020
:1004A000D0E00FC0D7016D917D01D601ED91FC9197
:1004B0000190F081E02DC6010995C80FD91F0150A8
:1004C00010400115110571F7CE01DF91CF911F91F9
:1004D0000F91FF90EF90DF90CF9008951F920F92B1
:1004E0000FB60F9211242F933F938F939F93AF9347
:1004F000BF938091C8019091C901A091CA01B091A8
:10050000CB013091CC010196A11DB11D232F2D5F90
:100510002D3720F02D570196A11DB11D2093CC0140
:100520008093C8019093C901A093CA01B093CB01F5
:100530008091C4019091C501A091C601B091C701FD
:100540000196A11DB11D8093C4019093C501A09394
:10055000C601B093C701BF91AF919F918F913F9119
:100560002F910F900FBE0F901F9018959FB7F89482
:100570002091C4013091C5014091C6015091C7013D
:1005800086B5A89B06C08F3F21F02F5F3F4F4F4F8E
:100590005F4F9FBF542F432F322F2227280F311D2B
:1005A000411D511D82E0220F331F441F551F8A95A4
:1005B000D1F7B901CA010895EF92FF920F931F93EB
:1005C000CF93DF937B018C010E94B602EB010FC039
:1005D0000E94B6026C1B7D0B83E0683E780738F002
:1005E0000894E108F10801091109C851DC4FE11430
:1005F000F1040105110561F7DF91CF911F910F9172
:10060000FF90EF900895789484B5826084BD84B59E
:10061000816084BD85B5826085BD85B5816085BDFD
:10062000EEE6F0E0808181608083E1E8F0E0108216
:10063000808182608083808181608083E0E8F0E057
:10064000808181608083E1EBF0E080818460808341
:10065000E0EBF0E0808181608083EAE7F0E0808178
:1006600084608083808182608083808181608083D8
:100670008081806880831092C1000895809300017A
:1006800008958E3008F08E508770909100019295F9
:10069000990F990F907C982B90937C0080917A0011
:1006A000806480937A0080917A0086FDFCCF20914F
:1006B000780030917900932F80E030E0282B392B9F
:1006C000C9010895833071F0843028F48130A1F09D
:1006D000823021F514C08630B1F08730D1F08430FB
:1006E000E9F404C0809180008F7703C0809180007E
:1006F0008F7D80938000089584B58F7702C084B584
:100700008F7D84BD08958091B0008F778093B00075
:1007100008958091B0008F7D8093B0000895EF928E
:10072000FF92CF93DF9390E0FC01E656FF4F449198
:100730008A579F4FFC018491882389F190E0880FAC
:10074000991FFC01E859FF4F25913491D9018E582A
:100750009F4FFC0125913491E22EE7017E01F32E9B
:10076000E701662349F49FB7F8948C914095842360
:100770008C93888184230BC0623059F49FB7F8941E
:100780008C91242F209582238C938881842B8883BD
:1007900005C09FB7F8948C91842B8C939FBFDF91F9
:1007A000CF91FF90EF9008950F931F93DF93CF9316
:1007B0000F92CDB7DEB7282F30E0F901E255FF4F99
:1007C0008491F901E656FF4F14912A573F4FF901E2
:1007D00004910023D9F0882321F069830E946203E9
:1007E0006981E02FF0E0EE0FFF1FEE58FF4F85917B
:1007F0009491DC019FB7F894662321F48C911095B5
:10080000812302C08C91812B8C939FBF0F90CF913D
:10081000DF911F910F910895EE0FFF1F0590F49146
:08082000E02D0994F894FFCFCC
:10082800010000000043014402E7001601FA003805
:020838000100BD
:00000001FF
